:040000000128FE2FA6
:100CFA00CC3025009300CC309A009E0191019201DC
:100D0A009801990120009E01FF309B009A018230D0
:100D1A009C00080070302100990018308C00950161
:100D2A00083024008C008B0122008C011030230033
:100D3A008C000D3021009D0080309E009F0108002C
:100D4A0021009D149D18A72E1C08F000F1017008BF
:100D5A00F7007108F8001B08F000F1017708F300AA
:100D6A00F20170087204F40071087304F500740843
:100D7A00F7007508F8007808F1007708F000F136F6
:100D8A00F00CF136F00C7008F2007208F6007608E2
:100D9A000800F100A1307102031CD72EA030F00028
:100DAA007008F10040307102031CE22E0130250068
:100DBA0091007135B23E9800080010307102031C90
:100DCA00ED2E1230250091007108F23E98000800BD
:100DDA0071080319F72E7108023E250091000130AF
:100DEA0098000800013025009100013098000800A1
:100DFA00A526F9007908FB0022000C140530FA0038
:100E0A000F30F900F130890B082FF90B082FFA0B74
:100E1A00082F0000A526F9007908FC007B087C024F
:100E2A0003181B2F7C08F9007908FB0022000C1517
:100E3A000530FA000F30F900F130890B222FF90B37
:100E4A00222FFA0B222F0000A526F9007908FC00B0
:100E5A007B087C020318352F7C08F9007908FB000F
:100E6A0022000C100530FA000F30F900F130890B1E
:100E7A003C2FF90B3C2FFA0B3C2F0000A526F9005A
:100E8A007908FC007B087C0203184F2F7C08F900C4
:100E9A007908FB0022000C110530FA000F30F90026
:100EAA00F130890B562FF90B562FFA0B562F0000EB
:100EBA00A526F9007908FC007B087C020318692F33
:100ECA007C08F9007908FB000530FA000F30F900B8
:100EDA00F130890B6E2FF90B6E2FFA0B6E2F000073
:100EEA007B0808008F26FD262000A0002008A2000B
:100EFA001930220203188C1DA22F22000C100C118B
:100F0A0022000C1405302000A1000F30A000F1309F
:100F1A00890B8D2FA00B8D2FA10B8D2F22000C106A
:100F2A0005302000A1000F30A000F130890B9B2F63
:100F3A00A00B9B2FA10B9B2F852F05302202031C90
:100F4A00AC2F2208FC3EA0002008A200AD2FA2016F
:100F5A007D2620002208A0000130A035FF3E031D97
:100F6A00B22F2035043EA1002108A3002308CE2673
:100F7A0009302000A1001E30A000E430890BC32FE5
:100F8A00A00BC32FA10BC32F000020008C19E72F41
:100F9A00A0302302031CD32FA301D82F23080A3E13
:100FAA00A0002008A3002308CE2605302000A100B7
:100FBA000F30A000F130890BE02FA00BE02FA10B1E
:100FCA00E02FCA2FA5262000A0002008A30022088F
:100FDA002302043EA0002008A3002308CE260330E3
:100FEA002000A0009730890BF82FA00BF82F0032B1
:060FFA00E72F2000772F15
:020000040001F9
:08000000FF3FFF3FFF3FFF3F00
:06000E00BC3FFF1C9F3FF8
:00000001FF
